{
  "_format": "hh-sol-artifact-1",
  "contractName": "MyNFT",
  "sourceName": "contracts/MyNFT.sol",
  "abi": [
    {
      "inputs": [],
      "stateMutability": "nonpayable",
      "type": "constructor"
    },
    {
      "anonymous": false,
      "inputs": [
        {
          "indexed": true,
          "internalType": "address",
          "name": "owner",
          "type": "address"
        },
        {
          "indexed": true,
          "internalType": "address",
          "name": "approved",
          "type": "address"
        },
        {
          "indexed": true,
          "internalType": "uint256",
          "name": "tokenId",
          "type": "uint256"
        }
      ],
      "name": "Approval",
      "type": "event"
    },
    {
      "anonymous": false,
      "inputs": [
        {
          "indexed": true,
          "internalType": "address",
          "name": "owner",
          "type": "address"
        },
        {
          "indexed": true,
          "internalType": "address",
          "name": "operator",
          "type": "address"
        },
        {
          "indexed": false,
          "internalType": "bool",
          "name": "approved",
          "type": "bool"
        }
      ],
      "name": "ApprovalForAll",
      "type": "event"
    },
    {
      "anonymous": false,
      "inputs": [
        {
          "indexed": true,
          "internalType": "address",
          "name": "previousOwner",
          "type": "address"
        },
        {
          "indexed": true,
          "internalType": "address",
          "name": "newOwner",
          "type": "address"
        }
      ],
      "name": "OwnershipTransferred",
      "type": "event"
    },
    {
      "anonymous": false,
      "inputs": [
        {
          "indexed": true,
          "internalType": "address",
          "name": "from",
          "type": "address"
        },
        {
          "indexed": true,
          "internalType": "address",
          "name": "to",
          "type": "address"
        },
        {
          "indexed": true,
          "internalType": "uint256",
          "name": "tokenId",
          "type": "uint256"
        }
      ],
      "name": "Transfer",
      "type": "event"
    },
    {
      "inputs": [
        {
          "internalType": "address",
          "name": "to",
          "type": "address"
        },
        {
          "internalType": "uint256",
          "name": "tokenId",
          "type": "uint256"
        }
      ],
      "name": "approve",
      "outputs": [],
      "stateMutability": "nonpayable",
      "type": "function"
    },
    {
      "inputs": [
        {
          "internalType": "address",
          "name": "owner",
          "type": "address"
        }
      ],
      "name": "balanceOf",
      "outputs": [
        {
          "internalType": "uint256",
          "name": "",
          "type": "uint256"
        }
      ],
      "stateMutability": "view",
      "type": "function"
    },
    {
      "inputs": [
        {
          "internalType": "uint256",
          "name": "tokenId",
          "type": "uint256"
        }
      ],
      "name": "getApproved",
      "outputs": [
        {
          "internalType": "address",
          "name": "",
          "type": "address"
        }
      ],
      "stateMutability": "view",
      "type": "function"
    },
    {
      "inputs": [
        {
          "internalType": "address",
          "name": "owner",
          "type": "address"
        },
        {
          "internalType": "address",
          "name": "operator",
          "type": "address"
        }
      ],
      "name": "isApprovedForAll",
      "outputs": [
        {
          "internalType": "bool",
          "name": "",
          "type": "bool"
        }
      ],
      "stateMutability": "view",
      "type": "function"
    },
    {
      "inputs": [
        {
          "internalType": "string",
          "name": "uri",
          "type": "string"
        }
      ],
      "name": "mint",
      "outputs": [],
      "stateMutability": "nonpayable",
      "type": "function"
    },
    {
      "inputs": [],
      "name": "name",
      "outputs": [
        {
          "internalType": "string",
          "name": "",
          "type": "string"
        }
      ],
      "stateMutability": "view",
      "type": "function"
    },
    {
      "inputs": [],
      "name": "owner",
      "outputs": [
        {
          "internalType": "address",
          "name": "",
          "type": "address"
        }
      ],
      "stateMutability": "view",
      "type": "function"
    },
    {
      "inputs": [
        {
          "internalType": "uint256",
          "name": "tokenId",
          "type": "uint256"
        }
      ],
      "name": "ownerOf",
      "outputs": [
        {
          "internalType": "address",
          "name": "",
          "type": "address"
        }
      ],
      "stateMutability": "view",
      "type": "function"
    },
    {
      "inputs": [],
      "name": "renounceOwnership",
      "outputs": [],
      "stateMutability": "nonpayable",
      "type": "function"
    },
    {
      "inputs": [
        {
          "internalType": "address",
          "name": "from",
          "type": "address"
        },
        {
          "internalType": "address",
          "name": "to",
          "type": "address"
        },
        {
          "internalType": "uint256",
          "name": "tokenId",
          "type": "uint256"
        }
      ],
      "name": "safeTransferFrom",
      "outputs": [],
      "stateMutability": "nonpayable",
      "type": "function"
    },
    {
      "inputs": [
        {
          "internalType": "address",
          "name": "from",
          "type": "address"
        },
        {
          "internalType": "address",
          "name": "to",
          "type": "address"
        },
        {
          "internalType": "uint256",
          "name": "tokenId",
          "type": "uint256"
        },
        {
          "internalType": "bytes",
          "name": "_data",
          "type": "bytes"
        }
      ],
      "name": "safeTransferFrom",
      "outputs": [],
      "stateMutability": "nonpayable",
      "type": "function"
    },
    {
      "inputs": [
        {
          "internalType": "address",
          "name": "operator",
          "type": "address"
        },
        {
          "internalType": "bool",
          "name": "approved",
          "type": "bool"
        }
      ],
      "name": "setApprovalForAll",
      "outputs": [],
      "stateMutability": "nonpayable",
      "type": "function"
    },
    {
      "inputs": [
        {
          "internalType": "bytes4",
          "name": "interfaceId",
          "type": "bytes4"
        }
      ],
      "name": "supportsInterface",
      "outputs": [
        {
          "internalType": "bool",
          "name": "",
          "type": "bool"
        }
      ],
      "stateMutability": "view",
      "type": "function"
    },
    {
      "inputs": [],
      "name": "symbol",
      "outputs": [
        {
          "internalType": "string",
          "name": "",
          "type": "string"
        }
      ],
      "stateMutability": "view",
      "type": "function"
    },
    {
      "inputs": [
        {
          "internalType": "uint256",
          "name": "index",
          "type": "uint256"
        }
      ],
      "name": "tokenByIndex",
      "outputs": [
        {
          "internalType": "uint256",
          "name": "",
          "type": "uint256"
        }
      ],
      "stateMutability": "view",
      "type": "function"
    },
    {
      "inputs": [
        {
          "internalType": "address",
          "name": "owner",
          "type": "address"
        },
        {
          "internalType": "uint256",
          "name": "index",
          "type": "uint256"
        }
      ],
      "name": "tokenOfOwnerByIndex",
      "outputs": [
        {
          "internalType": "uint256",
          "name": "",
          "type": "uint256"
        }
      ],
      "stateMutability": "view",
      "type": "function"
    },
    {
      "inputs": [
        {
          "internalType": "uint256",
          "name": "tokenId",
          "type": "uint256"
        }
      ],
      "name": "tokenURI",
      "outputs": [
        {
          "internalType": "string",
          "name": "",
          "type": "string"
        }
      ],
      "stateMutability": "view",
      "type": "function"
    },
    {
      "inputs": [],
      "name": "totalSupply",
      "outputs": [
        {
          "internalType": "uint256",
          "name": "",
          "type": "uint256"
        }
      ],
      "stateMutability": "view",
      "type": "function"
    },
    {
      "inputs": [
        {
          "internalType": "address",
          "name": "from",
          "type": "address"
        },
        {
          "internalType": "address",
          "name": "to",
          "type": "address"
        },
        {
          "internalType": "uint256",
          "name": "tokenId",
          "type": "uint256"
        }
      ],
      "name": "transferFrom",
      "outputs": [],
      "stateMutability": "nonpayable",
      "type": "function"
    },
    {
      "inputs": [
        {
          "internalType": "address",
          "name": "newOwner",
          "type": "address"
        }
      ],
      "name": "transferOwnership",
      "outputs": [],
      "stateMutability": "nonpayable",
      "type": "function"
    }
  ],
  "bytecode": "0x60806040523480156200001157600080fd5b506040518060400160405280600681526020017f446f634e465400000000000000000000000000000000000000000000000000008152506040518060400160405280600481526020017f444e465400000000000000000000000000000000000000000000000000000000815250816000908051906020019062000096929190620001a6565b508060019080519060200190620000af929190620001a6565b505050620000d2620000c6620000d860201b60201c565b620000e060201b60201c565b620002bb565b600033905090565b6000600b60009054906101000a900473ffffffffffffffffffffffffffffffffffffffff16905081600b60006101000a81548173ffffffffffffffffffffffffffffffffffffffff021916908373ffffffffffffffffffffffffffffffffffffffff1602179055508173ffffffffffffffffffffffffffffffffffffffff168173ffffffffffffffffffffffffffffffffffffffff167f8be0079c531659141344cd1fd0a4f28419497f9722a3daafe3b4186f6b6457e060405160405180910390a35050565b828054620001b49062000256565b90600052602060002090601f016020900481019282620001d8576000855562000224565b82601f10620001f357805160ff191683800117855562000224565b8280016001018555821562000224579182015b828111156200022357825182559160200191906001019062000206565b5b50905062000233919062000237565b5090565b5b808211156200025257600081600090555060010162000238565b5090565b600060028204905060018216806200026f57607f821691505b602082108114156200028657620002856200028c565b5b50919050565b7f4e487b7100000000000000000000000000000000000000000000000000000000600052602260045260246000fd5b61387980620002cb6000396000f3fe608060405234801561001057600080fd5b506004361061012c5760003560e01c806370a08231116100ad578063b88d4fde11610071578063b88d4fde14610343578063c87b56dd1461035f578063d85d3d271461038f578063e985e9c5146103ab578063f2fde38b146103db5761012c565b806370a08231146102b1578063715018a6146102e15780638da5cb5b146102eb57806395d89b4114610309578063a22cb465146103275761012c565b806323b872dd116100f457806323b872dd146101e95780632f745c591461020557806342842e0e146102355780634f6ccce7146102515780636352211e146102815761012c565b806301ffc9a71461013157806306fdde0314610161578063081812fc1461017f578063095ea7b3146101af57806318160ddd146101cb575b600080fd5b61014b600480360381019061014691906126c3565b6103f7565b6040516101589190612b96565b60405180910390f35b610169610409565b6040516101769190612bb1565b60405180910390f35b61019960048036038101906101949190612756565b61049b565b6040516101a69190612b2f565b60405180910390f35b6101c960048036038101906101c49190612687565b610520565b005b6101d3610638565b6040516101e09190612e53565b60405180910390f35b61020360048036038101906101fe9190612581565b610645565b005b61021f600480360381019061021a9190612687565b6106a5565b60405161022c9190612e53565b60405180910390f35b61024f600480360381019061024a9190612581565b61074a565b005b61026b60048036038101906102669190612756565b61076a565b6040516102789190612e53565b60405180910390f35b61029b60048036038101906102969190612756565b610801565b6040516102a89190612b2f565b60405180910390f35b6102cb60048036038101906102c6919061251c565b6108b3565b6040516102d89190612e53565b60405180910390f35b6102e961096b565b005b6102f36109f3565b6040516103009190612b2f565b60405180910390f35b610311610a1d565b60405161031e9190612bb1565b60405180910390f35b610341600480360381019061033c919061264b565b610aaf565b005b61035d600480360381019061035891906125d0565b610ac5565b005b61037960048036038101906103749190612756565b610b27565b6040516103869190612bb1565b60405180910390f35b6103a960048036038101906103a49190612715565b610b39565b005b6103c560048036038101906103c09190612545565b610be5565b6040516103d29190612b96565b60405180910390f35b6103f560048036038101906103f0919061251c565b610c79565b005b600061040282610d71565b9050919050565b606060008054610418906130a9565b80601f0160208091040260200160405190810160405280929190818152602001828054610444906130a9565b80156104915780601f1061046657610100808354040283529160200191610491565b820191906000526020600020905b81548152906001019060200180831161047457829003601f168201915b5050505050905090565b60006104a682610deb565b6104e5576040517f08c379a00000000000000000000000000000000000000000000000000000000081526004016104dc90612d93565b60405180910390fd5b6004600083815260200190815260200160002060009054906101000a900473ffffffffffffffffffffffffffffffffffffffff169050919050565b600061052b82610801565b90508073ffffffffffffffffffffffffffffffffffffffff168373ffffffffffffffffffffffffffffffffffffffff16141561059c576040517f08c379a000000000000000000000000000000000000000000000000000000000815260040161059390612df3565b60405180910390fd5b8073ffffffffffffffffffffffffffffffffffffffff166105bb610e57565b73ffffffffffffffffffffffffffffffffffffffff1614806105ea57506105e9816105e4610e57565b610be5565b5b610629576040517f08c379a000000000000000000000000000000000000000000000000000000000815260040161062090612cd3565b60405180910390fd5b6106338383610e5f565b505050565b6000600880549050905090565b610656610650610e57565b82610f18565b610695576040517f08c379a000000000000000000000000000000000000000000000000000000000815260040161068c90612e13565b60405180910390fd5b6106a0838383610ff6565b505050565b60006106b0836108b3565b82106106f1576040517f08c379a00000000000000000000000000000000000000000000000000000000081526004016106e890612bd3565b60405180910390fd5b600660008473ffffffffffffffffffffffffffffffffffffffff1673ffffffffffffffffffffffffffffffffffffffff168152602001908152602001600020600083815260200190815260200160002054905092915050565b61076583838360405180602001604052806000815250610ac5565b505050565b6000610774610638565b82106107b5576040517f08c379a00000000000000000000000000000000000000000000000000000000081526004016107ac90612e33565b60405180910390fd5b600882815481106107ef577f4e487b7100000000000000000000000000000000000000000000000000000000600052603260045260246000fd5b90600052602060002001549050919050565b6000806002600084815260200190815260200160002060009054906101000a900473ffffffffffffffffffffffffffffffffffffffff169050600073ffffffffffffffffffffffffffffffffffffffff168173ffffffffffffffffffffffffffffffffffffffff1614156108aa576040517f08c379a00000000000000000000000000000000000000000000000000000000081526004016108a190612d13565b60405180910390fd5b80915050919050565b60008073ffffffffffffffffffffffffffffffffffffffff168273ffffffffffffffffffffffffffffffffffffffff161415610924576040517f08c379a000000000000000000000000000000000000000000000000000000000815260040161091b90612cf3565b60405180910390fd5b600360008373ffffffffffffffffffffffffffffffffffffffff1673ffffffffffffffffffffffffffffffffffffffff168152602001908152602001600020549050919050565b610973610e57565b73ffffffffffffffffffffffffffffffffffffffff166109916109f3565b73ffffffffffffffffffffffffffffffffffffffff16146109e7576040517f08c379a00000000000000000000000000000000000000000000000000000000081526004016109de90612db3565b60405180910390fd5b6109f1600061125d565b565b6000600b60009054906101000a900473ffffffffffffffffffffffffffffffffffffffff16905090565b606060018054610a2c906130a9565b80601f0160208091040260200160405190810160405280929190818152602001828054610a58906130a9565b8015610aa55780601f10610a7a57610100808354040283529160200191610aa5565b820191906000526020600020905b815481529060010190602001808311610a8857829003601f168201915b5050505050905090565b610ac1610aba610e57565b8383611323565b5050565b610ad6610ad0610e57565b83610f18565b610b15576040517f08c379a0000000000000000000000000000000000000000000000000000000008152600401610b0c90612e13565b60405180910390fd5b610b2184848484611490565b50505050565b6060610b32826114ec565b9050919050565b610b41610e57565b73ffffffffffffffffffffffffffffffffffffffff16610b5f6109f3565b73ffffffffffffffffffffffffffffffffffffffff1614610bb5576040517f08c379a0000000000000000000000000000000000000000000000000000000008152600401610bac90612db3565b60405180910390fd5b6000610bc1600c61163e565b9050610bcd600c61164c565b610bd73382611662565b610be18183611680565b5050565b6000600560008473ffffffffffffffffffffffffffffffffffffffff1673ffffffffffffffffffffffffffffffffffffffff16815260200190815260200160002060008373ffffffffffffffffffffffffffffffffffffffff1673ffffffffffffffffffffffffffffffffffffffff16815260200190815260200160002060009054906101000a900460ff16905092915050565b610c81610e57565b73ffffffffffffffffffffffffffffffffffffffff16610c9f6109f3565b73ffffffffffffffffffffffffffffffffffffffff1614610cf5576040517f08c379a0000000000000000000000000000000000000000000000000000000008152600401610cec90612db3565b60405180910390fd5b600073ffffffffffffffffffffffffffffffffffffffff168173ffffffffffffffffffffffffffffffffffffffff161415610d65576040517f08c379a0000000000000000000000000000000000000000000000000000000008152600401610d5c90612c13565b60405180910390fd5b610d6e8161125d565b50565b60007f780e9d63000000000000000000000000000000000000000000000000000000007bffffffffffffffffffffffffffffffffffffffffffffffffffffffff1916827bffffffffffffffffffffffffffffffffffffffffffffffffffffffff19161480610de45750610de3826116f4565b5b9050919050565b60008073ffffffffffffffffffffffffffffffffffffffff166002600084815260200190815260200160002060009054906101000a900473ffffffffffffffffffffffffffffffffffffffff1673ffffffffffffffffffffffffffffffffffffffff1614159050919050565b600033905090565b816004600083815260200190815260200160002060006101000a81548173ffffffffffffffffffffffffffffffffffffffff021916908373ffffffffffffffffffffffffffffffffffffffff160217905550808273ffffffffffffffffffffffffffffffffffffffff16610ed283610801565b73ffffffffffffffffffffffffffffffffffffffff167f8c5be1e5ebec7d5bd14f71427d1e84f3dd0314c0f7b2291e5b200ac8c7c3b92560405160405180910390a45050565b6000610f2382610deb565b610f62576040517f08c379a0000000000000000000000000000000000000000000000000000000008152600401610f5990612cb3565b60405180910390fd5b6000610f6d83610801565b90508073ffffffffffffffffffffffffffffffffffffffff168473ffffffffffffffffffffffffffffffffffffffff161480610faf5750610fae8185610be5565b5b80610fed57508373ffffffffffffffffffffffffffffffffffffffff16610fd58461049b565b73ffffffffffffffffffffffffffffffffffffffff16145b91505092915050565b8273ffffffffffffffffffffffffffffffffffffffff1661101682610801565b73ffffffffffffffffffffffffffffffffffffffff161461106c576040517f08c379a000000000000000000000000000000000000000000000000000000000815260040161106390612c33565b60405180910390fd5b600073ffffffffffffffffffffffffffffffffffffffff168273ffffffffffffffffffffffffffffffffffffffff1614156110dc576040517f08c379a00000000000000000000000000000000000000000000000000000000081526004016110d390612c73565b60405180910390fd5b6110e78383836117d6565b6110f2600082610e5f565b6001600360008573ffffffffffffffffffffffffffffffffffffffff1673ffffffffffffffffffffffffffffffffffffffff16815260200190815260200160002060008282546111429190612fbf565b925050819055506001600360008473ffffffffffffffffffffffffffffffffffffffff1673ffffffffffffffffffffffffffffffffffffffff16815260200190815260200160002060008282546111999190612f38565b92505081905550816002600083815260200190815260200160002060006101000a81548173ffffffffffffffffffffffffffffffffffffffff021916908373ffffffffffffffffffffffffffffffffffffffff160217905550808273ffffffffffffffffffffffffffffffffffffffff168473ffffffffffffffffffffffffffffffffffffffff167fddf252ad1be2c89b69c2b068fc378daa952ba7f163c4a11628f55a4df523b3ef60405160405180910390a46112588383836117e6565b505050565b6000600b60009054906101000a900473ffffffffffffffffffffffffffffffffffffffff16905081600b60006101000a81548173ffffffffffffffffffffffffffffffffffffffff021916908373ffffffffffffffffffffffffffffffffffffffff1602179055508173ffffffffffffffffffffffffffffffffffffffff168173ffffffffffffffffffffffffffffffffffffffff167f8be0079c531659141344cd1fd0a4f28419497f9722a3daafe3b4186f6b6457e060405160405180910390a35050565b8173ffffffffffffffffffffffffffffffffffffffff168373ffffffffffffffffffffffffffffffffffffffff161415611392576040517f08c379a000000000000000000000000000000000000000000000000000000000815260040161138990612c93565b60405180910390fd5b80600560008573ffffffffffffffffffffffffffffffffffffffff1673ffffffffffffffffffffffffffffffffffffffff16815260200190815260200160002060008473ffffffffffffffffffffffffffffffffffffffff1673ffffffffffffffffffffffffffffffffffffffff16815260200190815260200160002060006101000a81548160ff0219169083151502179055508173ffffffffffffffffffffffffffffffffffffffff168373ffffffffffffffffffffffffffffffffffffffff167f17307eab39ab6107e8899845ad3d59bd9653f200f220920489ca2b5937696c31836040516114839190612b96565b60405180910390a3505050565b61149b848484610ff6565b6114a7848484846117eb565b6114e6576040517f08c379a00000000000000000000000000000000000000000000000000000000081526004016114dd90612bf3565b60405180910390fd5b50505050565b60606114f782610deb565b611536576040517f08c379a000000000000000000000000000000000000000000000000000000000815260040161152d90612d73565b60405180910390fd5b6000600a60008481526020019081526020016000208054611556906130a9565b80601f0160208091040260200160405190810160405280929190818152602001828054611582906130a9565b80156115cf5780601f106115a4576101008083540402835291602001916115cf565b820191906000526020600020905b8154815290600101906020018083116115b257829003601f168201915b5050505050905060006115e0611982565b90506000815114156115f6578192505050611639565b60008251111561162b578082604051602001611613929190612b0b565b60405160208183030381529060405292505050611639565b61163484611999565b925050505b919050565b600081600001549050919050565b6001816000016000828254019250508190555050565b61167c828260405180602001604052806000815250611a40565b5050565b61168982610deb565b6116c8576040517f08c379a00000000000000000000000000000000000000000000000000000000081526004016116bf90612d33565b60405180910390fd5b80600a600084815260200190815260200160002090805190602001906116ef929190612340565b505050565b60007f80ac58cd000000000000000000000000000000000000000000000000000000007bffffffffffffffffffffffffffffffffffffffffffffffffffffffff1916827bffffffffffffffffffffffffffffffffffffffffffffffffffffffff191614806117bf57507f5b5e139f000000000000000000000000000000000000000000000000000000007bffffffffffffffffffffffffffffffffffffffffffffffffffffffff1916827bffffffffffffffffffffffffffffffffffffffffffffffffffffffff1916145b806117cf57506117ce82611a9b565b5b9050919050565b6117e1838383611b05565b505050565b505050565b600061180c8473ffffffffffffffffffffffffffffffffffffffff16611c19565b15611975578373ffffffffffffffffffffffffffffffffffffffff1663150b7a02611835610e57565b8786866040518563ffffffff1660e01b81526004016118579493929190612b4a565b602060405180830381600087803b15801561187157600080fd5b505af19250505080156118a257506040513d601f19601f8201168201806040525081019061189f91906126ec565b60015b611925573d80600081146118d2576040519150601f19603f3d011682016040523d82523d6000602084013e6118d7565b606091505b5060008151141561191d576040517f08c379a000000000000000000000000000000000000000000000000000000000815260040161191490612bf3565b60405180910390fd5b805181602001fd5b63150b7a0260e01b7bffffffffffffffffffffffffffffffffffffffffffffffffffffffff1916817bffffffffffffffffffffffffffffffffffffffffffffffffffffffff19161491505061197a565b600190505b949350505050565b606060405180602001604052806000815250905090565b60606119a482610deb565b6119e3576040517f08c379a00000000000000000000000000000000000000000000000000000000081526004016119da90612dd3565b60405180910390fd5b60006119ed611982565b90506000815111611a0d5760405180602001604052806000815250611a38565b80611a1784611c3c565b604051602001611a28929190612b0b565b6040516020818303038152906040525b915050919050565b611a4a8383611de9565b611a5760008484846117eb565b611a96576040517f08c379a0000000000000000000000000000000000000000000000000000000008152600401611a8d90612bf3565b60405180910390fd5b505050565b60007f01ffc9a7000000000000000000000000000000000000000000000000000000007bffffffffffffffffffffffffffffffffffffffffffffffffffffffff1916827bffffffffffffffffffffffffffffffffffffffffffffffffffffffff1916149050919050565b611b10838383611fc3565b600073ffffffffffffffffffffffffffffffffffffffff168373ffffffffffffffffffffffffffffffffffffffff161415611b5357611b4e81611fc8565b611b92565b8173ffffffffffffffffffffffffffffffffffffffff168373ffffffffffffffffffffffffffffffffffffffff1614611b9157611b908382612011565b5b5b600073ffffffffffffffffffffffffffffffffffffffff168273ffffffffffffffffffffffffffffffffffffffff161415611bd557611bd08161217e565b611c14565b8273ffffffffffffffffffffffffffffffffffffffff168273ffffffffffffffffffffffffffffffffffffffff1614611c1357611c1282826122c1565b5b5b505050565b6000808273ffffffffffffffffffffffffffffffffffffffff163b119050919050565b60606000821415611c84576040518060400160405280600181526020017f30000000000000000000000000000000000000000000000000000000000000008152509050611de4565b600082905060005b60008214611cb6578080611c9f9061310c565b915050600a82611caf9190612f8e565b9150611c8c565b60008167ffffffffffffffff811115611cf8577f4e487b7100000000000000000000000000000000000000000000000000000000600052604160045260246000fd5b6040519080825280601f01601f191660200182016040528015611d2a5781602001600182028036833780820191505090505b5090505b60008514611ddd57600182611d439190612fbf565b9150600a85611d529190613155565b6030611d5e9190612f38565b60f81b818381518110611d9a577f4e487b7100000000000000000000000000000000000000000000000000000000600052603260045260246000fd5b60200101907effffffffffffffffffffffffffffffffffffffffffffffffffffffffffffff1916908160001a905350600a85611dd69190612f8e565b9450611d2e565b8093505050505b919050565b600073ffffffffffffffffffffffffffffffffffffffff168273ffffffffffffffffffffffffffffffffffffffff161415611e59576040517f08c379a0000000000000000000000000000000000000000000000000000000008152600401611e5090612d53565b60405180910390fd5b611e6281610deb565b15611ea2576040517f08c379a0000000000000000000000000000000000000000000000000000000008152600401611e9990612c53565b60405180910390fd5b611eae600083836117d6565b6001600360008473ffffffffffffffffffffffffffffffffffffffff1673ffffffffffffffffffffffffffffffffffffffff1681526020019081526020016000206000828254611efe9190612f38565b92505081905550816002600083815260200190815260200160002060006101000a81548173ffffffffffffffffffffffffffffffffffffffff021916908373ffffffffffffffffffffffffffffffffffffffff160217905550808273ffffffffffffffffffffffffffffffffffffffff16600073ffffffffffffffffffffffffffffffffffffffff167fddf252ad1be2c89b69c2b068fc378daa952ba7f163c4a11628f55a4df523b3ef60405160405180910390a4611fbf600083836117e6565b5050565b505050565b6008805490506009600083815260200190815260200160002081905550600881908060018154018082558091505060019003906000526020600020016000909190919091505550565b6000600161201e846108b3565b6120289190612fbf565b905060006007600084815260200190815260200160002054905081811461210d576000600660008673ffffffffffffffffffffffffffffffffffffffff1673ffffffffffffffffffffffffffffffffffffffff168152602001908152602001600020600084815260200190815260200160002054905080600660008773ffffffffffffffffffffffffffffffffffffffff1673ffffffffffffffffffffffffffffffffffffffff168152602001908152602001600020600084815260200190815260200160002081905550816007600083815260200190815260200160002081905550505b6007600084815260200190815260200160002060009055600660008573ffffffffffffffffffffffffffffffffffffffff1673ffffffffffffffffffffffffffffffffffffffff16815260200190815260200160002060008381526020019081526020016000206000905550505050565b600060016008805490506121929190612fbf565b90506000600960008481526020019081526020016000205490506000600883815481106121e8577f4e487b7100000000000000000000000000000000000000000000000000000000600052603260045260246000fd5b906000526020600020015490508060088381548110612230577f4e487b7100000000000000000000000000000000000000000000000000000000600052603260045260246000fd5b9060005260206000200181905550816009600083815260200190815260200160002081905550600960008581526020019081526020016000206000905560088054806122a5577f4e487b7100000000000000000000000000000000000000000000000000000000600052603160045260246000fd5b6001900381819060005260206000200160009055905550505050565b60006122cc836108b3565b905081600660008573ffffffffffffffffffffffffffffffffffffffff1673ffffffffffffffffffffffffffffffffffffffff168152602001908152602001600020600083815260200190815260200160002081905550806007600084815260200190815260200160002081905550505050565b82805461234c906130a9565b90600052602060002090601f01602090048101928261236e57600085556123b5565b82601f1061238757805160ff19168380011785556123b5565b828001600101855582156123b5579182015b828111156123b4578251825591602001919060010190612399565b5b5090506123c291906123c6565b5090565b5b808211156123df5760008160009055506001016123c7565b5090565b60006123f66123f184612e93565b612e6e565b90508281526020810184848401111561240e57600080fd5b612419848285613067565b509392505050565b600061243461242f84612ec4565b612e6e565b90508281526020810184848401111561244c57600080fd5b612457848285613067565b509392505050565b60008135905061246e816137e7565b92915050565b600081359050612483816137fe565b92915050565b60008135905061249881613815565b92915050565b6000815190506124ad81613815565b92915050565b600082601f8301126124c457600080fd5b81356124d48482602086016123e3565b91505092915050565b600082601f8301126124ee57600080fd5b81356124fe848260208601612421565b91505092915050565b6000813590506125168161382c565b92915050565b60006020828403121561252e57600080fd5b600061253c8482850161245f565b91505092915050565b6000806040838503121561255857600080fd5b60006125668582860161245f565b92505060206125778582860161245f565b9150509250929050565b60008060006060848603121561259657600080fd5b60006125a48682870161245f565b93505060206125b58682870161245f565b92505060406125c686828701612507565b9150509250925092565b600080600080608085870312156125e657600080fd5b60006125f48782880161245f565b94505060206126058782880161245f565b935050604061261687828801612507565b925050606085013567ffffffffffffffff81111561263357600080fd5b61263f878288016124b3565b91505092959194509250565b6000806040838503121561265e57600080fd5b600061266c8582860161245f565b925050602061267d85828601612474565b9150509250929050565b6000806040838503121561269a57600080fd5b60006126a88582860161245f565b92505060206126b985828601612507565b9150509250929050565b6000602082840312156126d557600080fd5b60006126e384828501612489565b91505092915050565b6000602082840312156126fe57600080fd5b600061270c8482850161249e565b91505092915050565b60006020828403121561272757600080fd5b600082013567ffffffffffffffff81111561274157600080fd5b61274d848285016124dd565b91505092915050565b60006020828403121561276857600080fd5b600061277684828501612507565b91505092915050565b61278881612ff3565b82525050565b61279781613005565b82525050565b60006127a882612ef5565b6127b28185612f0b565b93506127c2818560208601613076565b6127cb81613242565b840191505092915050565b60006127e182612f00565b6127eb8185612f1c565b93506127fb818560208601613076565b61280481613242565b840191505092915050565b600061281a82612f00565b6128248185612f2d565b9350612834818560208601613076565b80840191505092915050565b600061284d602b83612f1c565b915061285882613253565b604082019050919050565b6000612870603283612f1c565b915061287b826132a2565b604082019050919050565b6000612893602683612f1c565b915061289e826132f1565b604082019050919050565b60006128b6602583612f1c565b91506128c182613340565b604082019050919050565b60006128d9601c83612f1c565b91506128e48261338f565b602082019050919050565b60006128fc602483612f1c565b9150612907826133b8565b604082019050919050565b600061291f601983612f1c565b915061292a82613407565b602082019050919050565b6000612942602c83612f1c565b915061294d82613430565b604082019050919050565b6000612965603883612f1c565b91506129708261347f565b604082019050919050565b6000612988602a83612f1c565b9150612993826134ce565b604082019050919050565b60006129ab602983612f1c565b91506129b68261351d565b604082019050919050565b60006129ce602e83612f1c565b91506129d98261356c565b604082019050919050565b60006129f1602083612f1c565b91506129fc826135bb565b602082019050919050565b6000612a14603183612f1c565b9150612a1f826135e4565b604082019050919050565b6000612a37602c83612f1c565b9150612a4282613633565b604082019050919050565b6000612a5a602083612f1c565b9150612a6582613682565b602082019050919050565b6000612a7d602f83612f1c565b9150612a88826136ab565b604082019050919050565b6000612aa0602183612f1c565b9150612aab826136fa565b604082019050919050565b6000612ac3603183612f1c565b9150612ace82613749565b604082019050919050565b6000612ae6602c83612f1c565b9150612af182613798565b604082019050919050565b612b058161305d565b82525050565b6000612b17828561280f565b9150612b23828461280f565b91508190509392505050565b6000602082019050612b44600083018461277f565b92915050565b6000608082019050612b5f600083018761277f565b612b6c602083018661277f565b612b796040830185612afc565b8181036060830152612b8b818461279d565b905095945050505050565b6000602082019050612bab600083018461278e565b92915050565b60006020820190508181036000830152612bcb81846127d6565b905092915050565b60006020820190508181036000830152612bec81612840565b9050919050565b60006020820190508181036000830152612c0c81612863565b9050919050565b60006020820190508181036000830152612c2c81612886565b9050919050565b60006020820190508181036000830152612c4c816128a9565b9050919050565b60006020820190508181036000830152612c6c816128cc565b9050919050565b60006020820190508181036000830152612c8c816128ef565b9050919050565b60006020820190508181036000830152612cac81612912565b9050919050565b60006020820190508181036000830152612ccc81612935565b9050919050565b60006020820190508181036000830152612cec81612958565b9050919050565b60006020820190508181036000830152612d0c8161297b565b9050919050565b60006020820190508181036000830152612d2c8161299e565b9050919050565b60006020820190508181036000830152612d4c816129c1565b9050919050565b60006020820190508181036000830152612d6c816129e4565b9050919050565b60006020820190508181036000830152612d8c81612a07565b9050919050565b60006020820190508181036000830152612dac81612a2a565b9050919050565b60006020820190508181036000830152612dcc81612a4d565b9050919050565b60006020820190508181036000830152612dec81612a70565b9050919050565b60006020820190508181036000830152612e0c81612a93565b9050919050565b60006020820190508181036000830152612e2c81612ab6565b9050919050565b60006020820190508181036000830152612e4c81612ad9565b9050919050565b6000602082019050612e686000830184612afc565b92915050565b6000612e78612e89565b9050612e8482826130db565b919050565b6000604051905090565b600067ffffffffffffffff821115612eae57612ead613213565b5b612eb782613242565b9050602081019050919050565b600067ffffffffffffffff821115612edf57612ede613213565b5b612ee882613242565b9050602081019050919050565b600081519050919050565b600081519050919050565b600082825260208201905092915050565b600082825260208201905092915050565b600081905092915050565b6000612f438261305d565b9150612f4e8361305d565b9250827fffffffffffffffffffffffffffffffffffffffffffffffffffffffffffffffff03821115612f8357612f82613186565b5b828201905092915050565b6000612f998261305d565b9150612fa48361305d565b925082612fb457612fb36131b5565b5b828204905092915050565b6000612fca8261305d565b9150612fd58361305d565b925082821015612fe857612fe7613186565b5b828203905092915050565b6000612ffe8261303d565b9050919050565b60008115159050919050565b60007fffffffff0000000000000000000000000000000000000000000000000000000082169050919050565b600073ffffffffffffffffffffffffffffffffffffffff82169050919050565b6000819050919050565b82818337600083830152505050565b60005b83811015613094578082015181840152602081019050613079565b838111156130a3576000848401525b50505050565b600060028204905060018216806130c157607f821691505b602082108114156130d5576130d46131e4565b5b50919050565b6130e482613242565b810181811067ffffffffffffffff8211171561310357613102613213565b5b80604052505050565b60006131178261305d565b91507fffffffffffffffffffffffffffffffffffffffffffffffffffffffffffffffff82141561314a57613149613186565b5b600182019050919050565b60006131608261305d565b915061316b8361305d565b92508261317b5761317a6131b5565b5b828206905092915050565b7f4e487b7100000000000000000000000000000000000000000000000000000000600052601160045260246000fd5b7f4e487b7100000000000000000000000000000000000000000000000000000000600052601260045260246000fd5b7f4e487b7100000000000000000000000000000000000000000000000000000000600052602260045260246000fd5b7f4e487b7100000000000000000000000000000000000000000000000000000000600052604160045260246000fd5b6000601f19601f8301169050919050565b7f455243373231456e756d657261626c653a206f776e657220696e646578206f7560008201527f74206f6620626f756e6473000000000000000000000000000000000000000000602082015250565b7f4552433732313a207472616e7366657220746f206e6f6e20455243373231526560008201527f63656976657220696d706c656d656e7465720000000000000000000000000000602082015250565b7f4f776e61626c653a206e6577206f776e657220697320746865207a65726f206160008201527f6464726573730000000000000000000000000000000000000000000000000000602082015250565b7f4552433732313a207472616e736665722066726f6d20696e636f72726563742060008201527f6f776e6572000000000000000000000000000000000000000000000000000000602082015250565b7f4552433732313a20746f6b656e20616c7265616479206d696e74656400000000600082015250565b7f4552433732313a207472616e7366657220746f20746865207a65726f2061646460008201527f7265737300000000000000000000000000000000000000000000000000000000602082015250565b7f4552433732313a20617070726f766520746f2063616c6c657200000000000000600082015250565b7f4552433732313a206f70657261746f7220717565727920666f72206e6f6e657860008201527f697374656e7420746f6b656e0000000000000000000000000000000000000000602082015250565b7f4552433732313a20617070726f76652063616c6c6572206973206e6f74206f7760008201527f6e6572206e6f7220617070726f76656420666f7220616c6c0000000000000000602082015250565b7f4552433732313a2062616c616e636520717565727920666f7220746865207a6560008201527f726f206164647265737300000000000000000000000000000000000000000000602082015250565b7f4552433732313a206f776e657220717565727920666f72206e6f6e657869737460008201527f656e7420746f6b656e0000000000000000000000000000000000000000000000602082015250565b7f45524337323155524953746f726167653a2055524920736574206f66206e6f6e60008201527f6578697374656e7420746f6b656e000000000000000000000000000000000000602082015250565b7f4552433732313a206d696e7420746f20746865207a65726f2061646472657373600082015250565b7f45524337323155524953746f726167653a2055524920717565727920666f722060008201527f6e6f6e6578697374656e7420746f6b656e000000000000000000000000000000602082015250565b7f4552433732313a20617070726f76656420717565727920666f72206e6f6e657860008201527f697374656e7420746f6b656e0000000000000000000000000000000000000000602082015250565b7f4f776e61626c653a2063616c6c6572206973206e6f7420746865206f776e6572600082015250565b7f4552433732314d657461646174613a2055524920717565727920666f72206e6f60008201527f6e6578697374656e7420746f6b656e0000000000000000000000000000000000602082015250565b7f4552433732313a20617070726f76616c20746f2063757272656e74206f776e6560008201527f7200000000000000000000000000000000000000000000000000000000000000602082015250565b7f4552433732313a207472616e736665722063616c6c6572206973206e6f74206f60008201527f776e6572206e6f7220617070726f766564000000000000000000000000000000602082015250565b7f455243373231456e756d657261626c653a20676c6f62616c20696e646578206f60008201527f7574206f6620626f756e64730000000000000000000000000000000000000000602082015250565b6137f081612ff3565b81146137fb57600080fd5b50565b61380781613005565b811461381257600080fd5b50565b61381e81613011565b811461382957600080fd5b50565b6138358161305d565b811461384057600080fd5b5056fea26469706673582212204b6956733d070559b7dda574b4a76e2c0ffdd3a2562eb187b04282d7e2d6972c64736f6c63430008040033",
  "linkReferences": {},
  "deployedLinkReferences": {}
}